:100000000020002089030000B5030000B5030000B4
:10001000B5030000B5030000B5030000B503000000
:10002000B5030000B5030000B5030000B5030000F0
:10003000B5030000B4030000B5030000B5030000E1
:10004000E5010000B5030000B5030000B5030000A2
:10005000B5030000B5030000B5030000B9010000BE
:1000600021030000B5030000B5030000B503000044
:10007000B5030000B5030000B5030000B5030000A0
:10008000B5030000B5030000B5030000B503000090
:10009000B503000010B5064C2378002B07D1054BA3
:1000A000002B02D0044800E000BF0123237010BDE4
:1000B0006800002000000000D0040000044B10B5D0
:1000C000002B03D00349044800E000BF10BDC04628
:1000D000000000006C000020D0040000164B002B34
:1000E00000D1144B9D46402292029A1A924600215A
:1000F0008B460F461348144A121A00F0A3F90F4B0F
:10010000002B00D098470E4B002B00D098470020C2
:10011000002104000D000D48002802D00C4800E02A
:1001200000BF00F06BF92000290000F055F800F046
:100130004FF9C04600000800002000200000000029
:10014000000000006800002098000020000000006F
:100150000000000080B500AF034BDB6C1B0EDBB270
:100160001800BD4680BDC046B081E00F90B583B099
:1001700000AF0C4B01221A64FC1DFFF7EBFF0300DC
:100180002370FB1D1B78812B08D8074B074A1A6088
:10019000074B1A68064B07490A401A60C046BD461D
:1001A00003B090BD00000C4018600C400500000436
:1001B000E4800C40FFFFFFFE80B500AF044B01223E
:1001C0009A61044B01221A70C046BD4680BDC046EC
:1001D000000401408400002080B500AFFFF7C6FF97
:1001E000FEE7000090B58BB000AF314A80235B0181
:1001F000D358BB612E4A2F4BD258BB691340BB6109
:100200002B4B9B6B7B61BB697A6913403B6200237C
:10021000FB6145E000237B6237E03B6A012213402B
:100220002DD0234B9B683B6101227B6A9A401300CF
:10023000FB601F49204AFB688B507B6A1B013A69AF
:10024000D318DB68BB60BB68002B18D0BB681B7A77
:100250007B60BB681B7A01225340DAB2BB681A721A
:10026000BB681B68002B0AD0BB681C68786A7B6877
:100270005A1E9341D9B2BB685B681A00A0473B6A1B
:100280005B083B627B6A01337B623B6A002BC4D113
:100290007B69DA43BB6913403B62FB690133FB6155
:1002A000FB69012BB6DDC046BD460BB090BDC04614
:1002B00000200C400C1000000810000080B582B037
:1002C00000AF7860C0467B681B6980221340FAD07B
:1002D0007B68DB69DBB21800BD4602B080BD80B52B
:1002E00082B000AF7860FEE780B582B000AF786082
:1002F00039607B68DB6C3A68D2431A407B68DA6409
:10030000C046BD4602B080BD80B500AF034B04219E
:100310001800FFF7E9FFC046BD4680BD00C400409D
:10032000B0B500AF144B1B698022134021D0134B92
:100330001B68072B1BDC124B1C680F4B1800FFF7C8
:10034000BDFF03001A000F4B1A550D4B1B685A1CBA
:100350000B4B1A60094B1B685A1C084B1A60084B60
:100360001B68082B05D1064B00221A6001E0FFF73D
:10037000CBFFC046BD46B0BD00C400408C0000208D
:100380008800002090000020064880470649074A60
:10039000074B9B1A03DD043BC858D050FBDCFFF72A
:1003A0009DFE0000B9030000DC04000000000020F6
:1003B00068000020FEE7C04680B500AF024B034A4C
:1003C0009A60C046BD4680BD00ED00E00000000020
:1003D000084B10B50400002B02D0002100E000BF44
:1003E000054B1868836A002B00D098472000FFF760
:1003F00076FFC046000000006C04000070B50026C7
:100400000C4D0D4C641BA410A64209D1002600F02F
:1004100021F80A4D0A4C641BA410A64205D170BDF8
:10042000B300EB5898470136EEE7B300EB58984716
:100430000136F2E76000002060000020600000202C
:100440006400002003001218934200D17047197015
:100450000133F9E7F8B5C046F8BC08BC9E467047C2
:10046000F8B5C046F8BC08BC9E46704700000020A6
:10047000000000000000000000000000000000007C
:10048000000000000000000000000000000000006C
:10049000000000000000000000000000000000005C
:1004A000000000000000000000000000000000004C
:1004B000000000000000000000000000000000003C
:1004C000000000000000000000000000000000002C
:0404D0000000000028
:0804D40008FCFF7F010000009D
:1004DC000000000090040000B00400007004000054
:1004EC000000000000000000000000000000000000
:1004FC0000000000000000000000000000000000F0
:10050C0000000000000000000000000000000000DF
:10051C0000000000000000000000000000000000CF
:10052C0000000000000000000000000000000000BF
:08053C00BD0000009500000065
:04000003000003896D
:00000001FF
